:020000040000fa
:080000000002040000000000f2
:020000040000fa
:04000800a80200004a
:020000040000fa
:04000c00a802000046
:020000040000fa
:04001000a802000042
:020000040000fa
:04001400a80200003e
:020000040000fa
:04001800a80200003a
:020000040000fa
:04001c00a802000036
:020000040000fa
:04002000a802000032
:020000040000fa
:04002400a80200002e
:020000040000fa
:04002800a80200002a
:020000040000fa
:04002c00a802000026
:020000040000fa
:04003000a802000022
:020000040000fa
:040034006206000060
:020000040000fa
:040038000e080000ae
:020000040000fa
:04003c00a802000016
:020000040000fa
:04004000a802000012
:020000040000fa
:040044007808000038
:020000040000fa
:04004800a80200000a
:020000040000fa
:04004c00a802000006
:020000040000fa
:04005000060800009e
:020000040000fa
:04005400a8020000fe
:020000040000fa
:04005800a8020000fa
:020000040000fa
:04005c00a8020000f6
:020000040000fa
:040060004208000052
:020000040000fa
:04006400a8020000ee
:020000040000fa
:04006800a8020000ea
:020000040000fa
:04006c00a8020000e6
:020000040000fa
:04007000a8020000e2
:020000040000fa
:04007400a8020000de
:020000040000fa
:04007800a8020000da
:020000040000fa
:04007c00a8020000d6
:020000040000fa
:04008000a8020000d2
:020000040000fa
:04008400a8020000ce
:020000040000fa
:040088007a0a0000f0
:020000040000fa
:04008c00a8020000c6
:020000040000fa
:04009000a8020000c2
:020000040000fa
:04009400a8020000be
:020000040000fa
:04009800a8020000ba
:020000040000fa
:04009c00a8020000b6
:020000040000fa
:0400a000a8020000b2
:020000040000fa
:0400a400a8020000ae
:020000040000fa
:0400a800a8020000aa
:020000040000fa
:0400ac00a8020000a6
:020000040000fa
:0400b000a8020000a2
:020000040000fa
:0400b400a80200009e
:020000040000fa
:0400b800a80200009a
:020000040000fa
:0400bc00a802000096
:020000040000fa
:0400c000a802000092
:020000040000fa
:0400c400a80200008e
:020000040000fa
:0400c800a80200008a
:020000040000fa
:0400cc00a802000086
:020000040000fa
:0400d000a802000082
:020000040000fa
:0400d400a80200007e
:020000040000fa
:0400d800a80200007a
:020000040000fa
:0400dc00a802000076
:020000040000fa
:0400e000a802000072
:020000040000fa
:0400e400a80200006e
:020000040000fa
:0400e800a80200006a
:020000040000fa
:0400ec00a802000066
:020000040000fa
:0400f000a802000062
:020000040000fa
:0400f400a80200005e
:020000040000fa
:0400f800a80200005a
:020000040000fa
:0400fc00a802000056
:020000040000fa
:04010000a802000051
:020000040000fa
:04010400a80200004d
:020000040000fa
:04010800a802000049
:020000040000fa
:04010c00a802000045
:020000040000fa
:040110003a090000a8
:020000040000fa
:04011400a80200003d
:020000040000fa
:04011800a802000039
:020000040000fa
:04011c00a802000035
:020000040000fa
:04012000a802000031
:020000040000fa
:04012400a80200002d
:020000040000fa
:04012800a802000029
:020000040000fa
:04012c00a802000025
:020000040000fa
:04013000a802000021
:020000040000fa
:04013400a80200001d
:020000040000fa
:04013800a802000019
:020000040000fa
:04013c00a802000015
:020000040000fa
:04014000a802000011
:020000040000fa
:04014400a80200000d
:020000040000fa
:04014800a802000009
:020000040000fa
:04014c00a802000005
:020000040000fa
:04015000a802000001
:020000040000fa
:04015400a8020000fd
:020000040000fa
:04015800a8020000f9
:020000040000fa
:04015c00a8020000f5
:020000040000fa
:04016000a8020000f1
:020000040000fa
:04016400a8020000ed
:020000040000fa
:04020800a802000048
:020000040000fa
:04020c00a802000044
:020000040000fa
:04021000a802000040
:020000040000fa
:04021400a80200003c
:020000040000fa
:04021800a802000038
:020000040000fa
:04021c00a802000034
:020000040000fa
:04022000a802000030
:020000040000fa
:04022400a80200002c
:020000040000fa
:04022800a802000028
:020000040000fa
:04022c00a802000024
:020000040000fa
:04023000a802000020
:020000040000fa
:04023400a80200001c
:020000040000fa
:04023800a802000018
:020000040000fa
:04023c00a802000014
:020000040000fa
:04024000a802000010
:020000040000fa
:04024400a80200000c
:020000040000fa
:04024800a802000008
:020000040000fa
:04024c00a802000004
:020000040000fa
:04025000a802000000
:020000040000fa
:04025400a8020000fc
:020000040000fa
:04025800a8020000f8
:020000040000fa
:04025c00a8020000f4
:020000040000fa
:04026000a8020000f0
:020000040000fa
:04026400a8020000ec
:020000040000fa
:04026800a8020000e8
:020000040000fa
:04026c00a8020000e4
:020000040000fa
:04027000a8020000e0
:020000040000fa
:04027400a8020000dc
:020000040000fa
:04027800a8020000d8
:020000040000fa
:04027c00a8020000d4
:020000040000fa
:04028000a8020000d0
:020000040000fa
:04028400a8020000cc
:020000040000fa
:04028800a8020000c8
:020000040000fa
:04028c00a8020000c4
:020000040000fa
:04029000a8020000c0
:020000040000fa
:04029400a8020000bc
:020000040000fa
:04029800a8020000b8
:020000040000fa
:04029c00a8020000b4
:020000040000fa
:0402a000a8020000b0
:020000040000fa
:0402a400a8020000ac
:020000040000fa
:0402a800a8020000a8
:020000040000fa
:0402ac00a8020000a4
:020000040000fa
:0402b000a8020000a0
:020000040000fa
:0402b400a80200009c
:020000040000fa
:0402b800a802000098
:020000040000fa
:0402bc00a802000094
:020000040000fa
:0402c000a802000090
:020000040000fa
:0402c400a80200008c
:020000040000fa
:0402c800a802000088
:020000040000fa
:0402cc00a802000084
:020000040000fa
:0402d000a802000080
:020000040000fa
:0402d400a80200007c
:020000040000fa
:0402d800a802000078
:020000040000fa
:0402dc00a802000074
:020000040000fa
:0402e000a802000070
:020000040000fa
:0402e400a80200006c
:020000040000fa
:0402e800a802000068
:020000040000fa
:0402ec00a802000064
:020000040000fa
:0402f000a802000060
:020000040000fa
:0402f400a80200005c
:020000040000fa
:0402f800a802000058
:020000040000fa
:0402fc00a802000054
:020000040000fa
:04030000a80200004f
:020000040000fa
:04030400a80200004b
:020000040000fa
:04030800a802000047
:020000040000fa
:04030c00a802000043
:020000040000fa
:04031000a80200003f
:020000040000fa
:04031400a80200003b
:020000040000fa
:04031800a802000037
:020000040000fa
:04031c00a802000033
:020000040000fa
:04032000a80200002f
:020000040000fa
:04032400a80200002b
:020000040000fa
:04032800a802000027
:020000040000fa
:04032c00a802000023
:020000040000fa
:04033000a80200001f
:020000040000fa
:04033400a80200001b
:020000040000fa
:04033800a802000017
:020000040000fa
:04033c00a802000013
:020000040000fa
:04034000a80200000f
:020000040000fa
:04034400a80200000b
:020000040000fa
:04034800a802000007
:020000040000fa
:04034c00a802000003
:020000040000fa
:04035000a8020000ff
:020000040000fa
:04035400a8020000fb
:020000040000fa
:04035800a8020000f7
:020000040000fa
:04035c00a8020000f3
:020000040000fa
:04036000a8020000ef
:020000040000fa
:04036400a8020000eb
:020000040000fa
:10040000af9120000e4f22000e0188000000000076
:10041000000020000000e000020032000001200087
:10042000200288000c00070080e820000100200066
:1004300011000700000020000000e0000200320070
:1004400000000200000000002e0e0200000000006c
:100450000040da000000fe004440a9000000200037
:100460000000e0000300320000002000a00188002e
:100470004440a80000000600910188008000780038
:100480000000eb0015003700e280400032a0b4000d
:100490009101ba00e280400032a0b4009102ba009b
:1004a000e280400032a0b4000002eb00472bde00e7
:1004b000f507b200602ce10004003a000059eb009f
:1004c0008301e900fdff3e00040037006128e100e0
:1004d000010032000082eb000b00070011c3ba00dc
:1004e0001101ba000604e00003003a000200e00037
:1004f000e5ff3a0000000600f607b200960188000a
:1005000082007800f5ff37003159ba008301e90015
:100510000c0032002159ba008301e90008003200c2
:100520000400e00003003a00e280400032a0b40082
:10053000f5ff370011d9ba008301e900faff3a004c
:100540008100e800e180400032a0b4000000060015
:100550000040da000000fe0003f0a200889fbe0009
:100560008a9fbe008c1f7800180107001f0133000e
:100570006450e1004f0032006420e100520032007c
:1005800003826c0007003b000905d0000306d00081
:10059000820f54000c065d00020039000200320098
:1005a00089017800030678008582550004003d002b
:1005b0000003fd008103fd008502ea008b854200f7
:1005c000840f720002003b0060001000e080180001
:1005d0006011b8000005eb007a28e1000a0039003c
:1005e00006007800c75ddd00f707b2008780750060
:1005f0002d003700828171000a01780061056000da
:100600008180d1000080d3008502e900f9ff3b0022
:10061000060440008784480002003b006004140088
:10062000e0841c000988a300070032008a81710061
:1006300082817100610164008904d1000884d300c3
:100640008b05e800170037000978a30013003a0073
:100650000b00e000130034008b05e900080444009f
:1006600089844c000a4474000978a3000d003a0004
:100670000b00e000070034008b05e900080444008b
:1006800089844c0001003a000b0020000978a30087
:10069000f7ff32000001eb00020037008281710099
:1006a0000a0178008e0007000cf0a70001f0a000fe
:1006b000d70037006420e10002003a00838f6c000d
:1006c000d70033000801be000200be00d000370092
:1006d000889fbe008a9fbe008c1f7800bb00070069
:1006e000c200330003866c006450e1002e0032002b
:1006f0006420e100330032006150e1002f0032003d
:100700006120e1003100320085855500eb07b00023
:1007100009002000080420000500370008044400f8
:1007200089844c000a0031000603430087834b0094
:100730000001530081815b00f8ff33000203be001b
:100740000800a0000804440089844c00f6ff39002a
:10075000c639dd0083017300010032001300200060
:100760008904d1000884d3000998a3000500320051
:100770000800a7000300a0008904d1000884d3006a
:100780008b05e8008904d1000884d3000001eb0048
:100790000281d2005200070001f0a1000cf0a70076
:1007a00001f0a0009a0037006420e1009c003200b4
:1007b0000801be000200be00f7ff37006120e10023
:1007c000970032006000b800f3ff370000002000ff
:1007d00001f82700f0ff370014002000c7003700a1
:1007e000f4ff2f00c50037000001be0062000700c3
:1007f0000470a70003f0a1006509b10016003200e3
:100800000d0035006828e10006003500f0ff2f00dc
:10081000f1ff27000300e00013003b000100280067
:100820000000050000004000818048008502e900ca
:10083000fcff3a0008003700f88f420002003c003d
:100840008000eb00000005008100d1000080d30093
:100850008502e800fcff3a000300e00002003b00d4
:1008600060001000e0801800000006000001be00db
:10087000410007000470a70003f0a10003f8a300e3
:1008800013003a006509b10010003200090035007c
:100890006928e10002003500010028000000050081
:1008a00000004000818048008502e900fcff3a001a
:1008b00000000600f88f4200050035008100d100dd
:1008c0000080d3008502e800fcff3a00000006002b
:1008d0008000eb00000005006011b800a2003700a6
:1008e00081002000618055000b003d000b002000be
:1008f00061fe2f000100e1001d00340082817100c3
:10090000610164008904d1000884d3000000e8007c
:10091000faff3a00710020006100640003007000db
:10092000020060000900320061044400e0844c00d1
:100930000988a500050032008b05e8006808e10081
:1009400002003a008904d1000884d300f20f20008d
:100950000258e10005003d00c75ddd00f907b20067
:100960008980750008007800000006000bf8270059
:100970008b00780000000500c70ade00f107b20016
:10098000f50fb20008003200e1cf42000200320051
:100990000170a00024000500810f700001003200ea
:1009a0000408050044000500810f700002003a00b1
:1009b000140005008502e9000000400081c04800e5
:1009c000fcff3b000170a000240005000004be00f5
:1009d000e9ff07000003be000405be000200be00e0
:1009e000e5ff0700844f7500000006000200be000e
:1009f0006450e100050036006420e100020036008a
:100a00000968a30001003a000800be000160a000d0
:100a10004f0678004f05be004f04be0000000600e0
:100a2000f0ff2f00f1ff2700f9ff3700889fbe007d
:100a30008a9fbe008c1f7800e4ff0700ebff3300a5
:100a400003866c006450e100240032006420e10061
:100a5000270032006150e100220032006120e100f5
:100a6000210032008b854200eb07b1000134b80051
:100a7000003ab8000804420089844a00013ab800ec
:100a80000030b8008880400009014a0004003300ab
:100a90000000400081804800020149008b05e90008
:100aa000c909dd008301700001003200130020003d
:100ab000c814de004814dd004709de001200b20051
:100ac000c808de000884700085ff070001f0a1005f
:100ad0000cf0a70001f0a000cdff37006120e1007d
:100ae000cfff32000801be000200be00f7ff370052
:100af0006150e100fcff3a00c9ff3700889fbe004b
:100b00008a9fbe00841f7800b0ff07004f00780066
:100b100011003300f0ff2f00838f6c0006003b00b4
:100b2000040565000a00a7000800370009f0a600c8
:100b30001000200008003700820f5400838f5c00f3
:100b4000030039001000200001003e0000002000da
:100b500009f0a7000000ea004f05be004f04be00e8
:100b60000000e00000000600889fbe008a9fbe00d3
:100b700000827000040271000482710026003200bd
:100b80000004be000200be006011b8006b09200026
:100b9000950220000182cf000a0039000541b10012
:100ba0000082cf00070039000541b1000982cf0063
:100bb000040039000541b1000882cf00010039006e
:100bc0000541b10005425200120032000a003b000c
:100bd00082817100610164008100d1000080d30036
:100be0008984d3000884d3008b05e8000442e80020
:100bf000f7ff3a00070037000804440089844c00de
:100c000000004800818048008b05e9000442e900ab
:100c1000f9ff3a0032ff07004f05be004f04be0047
:040c200000000600ca
:020000040000fa
:100c24000000fa0090022000303a8800203a800048
:100c34000060a1000070a100203a8800213a8000e1
:100c440000fe2f0000806000203a8800120020007f
:100c540080072000a1092000337420008049780017
:100c64008149780082497800120020006004200045
:100c740071052000237420008049780081497800a0
:100c84008249780000000000113a8000000027002b
:100c94008080600000002100808f5000faff3a003d
:100ca40000000000113a8000000220000080600073
:100cb4000000e000fbff32000080fa0000000600a4
:100cc4003600f800809fbe00829fbe00849fbe0055
:100cd400869fbe000000fa008460a9008703070015
:100ce4001000200040408800004080001140800037
:100cf40061004000e0804800004088001140880006
:100d04000080fa004f03be004f02be004f01be0038
:100d14004f00be003600f900004006000000fa0053
:100d24000021ef00f0418000014280000200200019
:100d3400b33124003cff07000200200003f8230025
:100d440004fe0700c8fe07000000780010088800b1
:100d540000032800200888008460a9009460a8008b
:100d64000080fa00000006000000fa002c23ef00c7
:100d74003000200000168800000d20003016880086
:100d8400c422ef00f0042300401688000001200074
:100d940070168800cc22ef00f03e200080168800f8
:100da400d622ef00d422ef000080fa0000000600f3
:100db4000000fa00a136800000fe2f0000806000d1
:100dc4007000b300a036880041358000f00f2e007b
:100dd40080806000003021000100700040358800f0
:100de4004135800000fe2f00008060005001b300f8
:100df400403588004022ef004822ef008540a900da
:100e04009540a9004222ef004382a9004362a90051
:100e14004342a9004322a9004302a90042c2a900f7
:100e240042a2a900101280000020a1000030a000fe
:100e34000040a00010128800101280000000a000e2
:100e44000010a1001012880040c2a90041e2a800cd
:100e54008540a9009540a800400580000080a100bd
:100e64000090a00000a0a000400588000080fa00c7
:100e7400000006000000fa00001c80000040a100f1
:100e84000050a100001c8800001c80000000a0008d
:100e94000010a000001c880081a3a80081c3a90041
:100ea400e023ef0050032000501c8800a000200025
:100eb400101c880080242000401c880040792000f9
:100ec400201c880080722000301c88008480a900c7
:100ed4009480a80081e3a8000080fa0000000600c6
:100ee4000000fa00601c80000040a1000050a10036
:100ef400601c8800601c80000000a1000010a0009d
:100f0400601c88008da3a9008dc3a9005003200094
:100f1400b01c8800a0002000701c880080242000e1
:100f2400a01c8800c06b2000801c88000065200085
:100f3400901c880085c0a90095c0a8008de3a80076
:100f44000080fa00000006000200fa000000eb0036
:100f5400000f7800060037001e0078008000400073
:100f640040792200008040001e0878001e0fe8002f
:100f74001e007800e30f5000f7ff36000000eb007e
:100f8400000f7800080037001e017800f0004100cf
:100f94001e00780000014000807222000000410021
:100fa400010878001e0fe8001e007800e20f5000d0
:100fb400f5ff36000000eb00000f78000d0037004d
:100fc4001e00780080004000c06b220000804000ba
:100fd400d1ee2d00010878001e007800800040004a
:100fe4000065220000804000d1ee2d000108780049
:100ff4001e0fe8001e007800e30f5000f0ff3600db
:101004000080fa00000006000000fa008540a900f4
:101014000080fa00004006003600f800809fbe0001
:10102400829fbe00849fbe00869fbe000000fa001f
:10103400a04180000000e00003003a004079220053
:101044007f01070002003700807222007c01070044
:10105400a04180000000a200a041880081e3a80014
:101064008480a9000080fa004f03be004f02be0036
:101074004f01be004f00be003600f90000400600dc
:101084003600f800809fbe00829fbe00849fbe0091
:10109400869fbe000000fa00904180000000e0003e
:1010a40003003a00c06b22007d01070002003700f4
:1010b400006522007a010700904180000000a20030
:1010c4009041880085c0a90010002000d04088000d
:1010d4000080fa004f03be004f02be004f01be0065
:1010e4004f00be003600f90000400600801f780063
:1010f4003400f80000002000a00188000000fa007d
:1011040080408000000c880090408000300c8800f3
:1011140084e0a9000080fa003400f9004f00780050
:10112400004006000000fa00000028008008880043
:1011340084e0a90094e0a8008421ef000621ef00d8
:10114400703e20006008880080408000000c880009
:1011540080408000100c880060002000200c880073
:101164007136800000fe2f00008060002001b30073
:10117400703688000080fa00000006000000fa00c3
:101184008a21ef00703e20006008880090408000b3
:10119400300c880090408000400c880060002000e3
:1011a400500c880071368000f00f2e0080806000a3
:1011b4000030210001007000703688000080fa00c1
:1011c400000006000000fa00e134800000fe2f0059
:1011d400008060006001b300e0348800e1348000e6
:1011e400f00f2e008080600000702100010070006c
:1011f400e0348800f134800000fe2f00008060009d
:101204008001b300f0348800e1a1a900000f800040
:101214000080a0000090a00000a0a000000f8800a3
:10122400e0e1a900e0c1a900e041a800100f80009e
:101234000090a10000a0a100100f8800e2e1a90025
:10124400100f80000040a0000050a0000060a1002a
:10125400100f8800e421ef00f07c2000300f88009c
:101264008b40a9009b40a8000080fa000000060003
:10127400809fbe000000fa00010f80000080200063
:10128400008060000000e000070032005041800050
:101294006141800061004000e080480050418800c6
:1012a40061418800060037005041800061418000a0
:1012b40061005000e080580050418800614188007e
:1012c4008b40a9000080fa004f00be0000400600d9
:1012d4000000fa000135800000fe2f00008060004d
:1012e4009001b3000035880001358000f00f2e0016
:1012f4008080600000d0200001007000003588006c
:101304001135800000fe2f0000806000c000b30093
:1013140010358800f1a1a900800f80000080a00092
:101324000090a00000a0a000800f8800f0e1a900b8
:10133400f0c1a900f041a800900f80000090a10026
:1013440000a0a100900f8800f2e1a900900f800096
:101354000040a0000050a0000060a100900f880091
:10136400f421ef00f07f2000b00f88000080fa0025
:10137400000006000000fa000a21ef000021ef003f
:10138400f0702200700888008500a9009500a9006b
:1013940013e1a8000080fa00000006000000fa0033
:1013a4002023ef002223ef002423ef003223ef0059
:1013b400001980000050a1000060a0000070a1008e
:1013c400001988002143a900101980000080a000a2
:1013d4000090a000101988002063a8002203a80030
:1013e400101980000020a0000030a1000040a100de
:1013f4000050a100101988002043a80025e3a9008b
:10140400f0c3b30024e3b7002183a900901980003e
:101414000000a1000010a0000020a1009019880085
:101424004119800000fe2f00008060006000b300be
:101434004019880028e3a9002603a9003019800078
:101444000010a1000020a10030198800411980007b
:10145400f00f2e00808060000070200001007000fa
:101464004019880029e3a9002703a8003019800047
:101474000090a10000a0a1003019880085a0a90057
:1014840095a0a90021e3a8000080fa00000006004e
:101494000000fa00c01c80000040a1000050a00021
:1014a400c01c8800c01c80000000a1000010a00027
:1014b400c01c880000302000001d8800f0012000be
:1014c400101d8800d0002000d01c8800005c200083
:1014d400e01c880000502000f01c88008700a90050
:1014e4009700a80099e3a8000080fa000000060015
:1014f4003600f800809fbe00829fbe00849fbe001d
:10150400869fbe000000fa00804180000000e000d9
:1015140003003a00005c2200ab0107000200370020
:1015240000502200a8010700804180000000a200b2
:10153400804188008700a9000080fa004f03be00a4
:101544004f02be004f01be004f00be003600f9003e
:10155400004006000000fa009004200020108800db
:1015640007e2a90007a2a9000782a8000762a90050
:101574000742a9000722a8000702a90006e2a90061
:1015840006c2a90006a2a9000682a9000662a90053
:101594000642a9000622a9000602a9000022ef00c3
:1015a4000222ef0007e2a8000080fa000000060013
:1015b4000600fa00889fbe001007980021079800d3
:1015c400190020006011b8001e009000ae009000c9
:1015d40082fc07000000e00001003c008004eb00f6
:1015e400180020006011b8001e009000ae009000aa
:1015f40078fc07000000e000010035000004eb0067
:10160400088f5400040007001e0078004f04be0039
:101614000080fa00000006000200fa000000eb005f
:10162400000f7800010037001e0fe8001e0078004c
:10163400ee0f5000fcff34000080fa0000000600aa
:101644000600fa00200798006003200010079800a5
:101654000000eb00000f78000b0037001e0078003c
:1016640000004000ae009000808040001e00780022
:1016740000014000e08a20000000410010007800d2
:10168400800878001e0fe8001e0090009e0078007d
:10169400808f5000f1ff35000080fa000000060042
:1016a4000600fa0020079800600320001007980045
:1016b4000000eb00000f78000b0037001e007800dc
:1016c40000004000ae0090000080400090007800d0
:1016d4001e0078000001400020842000000041002a
:1016e400010878001e0fe8001e0090009e0078009c
:1016f400808f5000f1ff35000080fa0000000600e2
:101704000a00fa000000eb00000f78000000eb0074
:10171400100798000000eb00200798000000eb0081
:1017240040079800de0037001e007800800040006b
:10173400208420000080400010007800b041880020
:10174400b0418000800078001e0078000001400055
:10175400e08a20000000410001087800b0418000c8
:10176400e10f50004d003a00e40007001e01e800bc
:10177400304180004141800080007800f00f20005b
:101784008080600002014100e08a200000004100e6
:10179400010878001e82e800324180004341800045
:1017a40000f02f000100200082027800030178007d
:1017b40080017800010078008382620000006100eb
:1017c4008000eb00c000dd00000020000001be002e
:1017d4006128b8000001710081817100c81add0020
:1017e4004810de0000807200c898de008000780097
:1017f40004014200e08a2000000041000108780052
:101804009e007800638240003241800043418000a2
:1018140000002000f10f200082027800030178000c
:10182400800178000100780083826200000061007a
:101834008000eb00c000dd00000020000001be00bd
:101844006128b80000017100818171004098de00b8
:10185400cf80de008000780004014200e08a20008e
:1018640000004100010878009e0278006481420073
:1018740030418000414180004808de00800078004b
:1018840002014100e08a20000000410001087800c4
:1018940050002000200798007f003700b0418000ee
:1018a400e20f50002d003a001e00e80080004000c6
:1018b4002084200000804000900078001e80e80012
:1018c4000001400020842000000041001000780046
:1018d4004800dd0001007000a0408800a0408000a6
:1018e4008000eb00fbfb070042512000a3c723004c
:1018f4004dfc0700bbfb0700000078008040880017
:101904001e00e8009e00e8000181400021842000c0
:10191400810041009100780000014000e08a20002d
:1019240000004100010878001e80e8009e80e80065
:101934000181400021842000810041009100780051
:1019440000014000e08a2000000041000108780006
:1019540030002000200798004f003700b04180007d
:101964004480de00e10f500032003a00b0418000b4
:1019740070005000400798000000eb00300798000a
:10198400260037003e009000000040001e0040008a
:101994000000e800ce0090004209dd00be00900087
:1019a40081004100018140008160220081004100ea
:1019b40011017800f10f2000810061000001400056
:1019c400e08a200000004100010878003e009000f9
:1019d400000040001e0040000080e800ce0090009f
:1019e4004209dd00be0090008100410001814000f9
:1019f400816022008100410091007800c808de0067
:101a040000014000e08a2000000041000108780045
:101a14003e0090000000e800300798003e0090006f
:101a2400e30f5000d7ff34009000200020079800f7
:101a340019003700b1418000000f2000808f500052
:101a440005003a0010002000100798001000200044
:101a5400200798001000370010002000e0418800a3
:101a64001e00e80080004000e08a20000080400062
:101a7400f10f2000010878001e80e800800040007b
:101a8400e08a200000804000f10f20000108780067
:101a940030002000200798002e0090001e0f400008
:101aa4001e0090000000e0001fff32000080fa00da
:101ab400000006000800fa00200f80008000eb0000
:101ac40084fb0700008fbe0002002000433b24007b
:101ad4001e00be00d4fb070002002e00934f24001a
:101ae400fafa070020079800310798002e009000aa
:101af400be0090000080fa00000006000000fa001a
:101b0400200f80008000eb001041880021418800f4
:101b14005041800061418000027d20000289b900ab
:101b2400020178006002b9008401780003014100d9
:101b3400037d20000300b800010141008200780009
:101b4400f040880001418800124180002341800058
:101b5400f040800001418000020040008380480082
:101b640030418800414188001041800021418000bb
:101b740000007800e04088000080fa0000000600c1
:101b84000800fa00a00f80008000eb0051fb070062
:101b9400008fbe0002002000433b24001e00be0054
:101ba400a1fb070002002e00f34f2400c7fa070030
:101bb40020079800310798002e009000be00900086
:101bc4000080fa00000006000400fa0010079800e4
:101bd4000000eb00000f7800120037007241800013
:101be4001e0078004300dd009e00900080804000cd
:101bf4007041800000004000008040001000780028
:101c0400800078001e0078004200dd0002004000e1
:101c140000014000806022000000410001087800bb
:101c24001e0fe8001e007800e80f5000ebff3400a0
:101c3400704180000000e80070418800704180001d
:101c4400e40f500001003a002e28ef0085a0a900ff
:101c54000080fa00000006000000fa00f0fb070014
:101c640041fc07002dfc070051fc070081fc070024
:101c74009bfc070053fd07002afd070004fe070034
:101c8400c6fd0700bbfd0700cc82a800c482a800e3
:101c9400c522a800c502a800401f2000804088007b
:101ca400caa2a8000d003700024080001340800043
:101cb4004006200001002000800f5100818f590050
:101cc40006003400401f200080408800c242a90062
:101cd400caa2a900c482a800cc82a900d040800076
:101ce4000000e000f0ff3200caa2a900c242a8002e
:101cf400c482a900cc82a8000028ef000228ef00cb
:0c1d04007ffe07001a28ef00e5ff370003
:020000040000fa
:101d10000826000048000000000000009427000092
:101d20006c00000000000000282700006c0000008c
:101d300000000000bc2600006c0000000000000055
:101d4000502600006c00000000000000c0250000cc
:101d500048000000000000000025000048000000ce
:101d6000000000002e080000080000000000000035
:101d700042080000d8000000000000000008000039
:101d80001c000000000000003e08000004000000ed
:101d900002000000000080003f0000001c0800005e
:101da00012000000000000003608000008000000db
:081db00000000000e40e8000b9
:020000040000fa
:101db8000400fa00008fbe000080fa000000060050
:020000040000fa
:041dc8000000000017
:020000040000fa
:0200000401f009
:04000c00f8ff0000f9
:020000040000fa
:0200000401f009
:040010007fff00006e
:020000040000fa
:0200000401f009
:040014007fff00006a
:020000040000fa
:0200000401f009
:04001c00deff000003
:00000001FF
